:020000040800F2
:100000002833002009010008FF2B000839290008C7
:10001000FD2B00085D0C000861470008000000008F
:100020000000000000000000000000006541000822
:100030005F0C000800000000853E0008B541000884
:100040002301000823010008230100082301000800
:1000500023010008230100082301000823010008F0
:1000600023010008230100082301000823010008E0
:1000700023010008230100082301000823010008D0
:1000800023010008230100082301000823010008C0
:1000900023010008230100082301000823010008B0
:1000A00000000000230100082301000823010008CC
:1000B00069420008D5440008E14400082301000813
:1000C0002301000823010008230100082301000880
:1000D00023010008554700082301000823010008F8
:1000E000610C000823010008230100082301000817
:1000F00023010008DFF80CD000F002FC00480047A4
:10010000E14D000828330020064880470648004794
:10011000FEE7FEE7FEE7FEE7FEE7FEE7FEE7FEE7B7
:10012000FEE7FEE719420008F5000008D2B201E040
:1001300000F8012B491EFBD270470022F6E710B5EC
:1001400013460A4604461946FFF7F0FF204610BD45
:10015000F0B480EA0102D40F4200B2EB410F02D2A8
:100160000246084611464A0042D0C30DDDB2C1F333
:10017000C752AD1A202D35DAC1F3160141F4000241
:1001800004B15242C5F1200602FA06F12A41104498
:10019000B3EBD05F23D0C4B1012DA0EBC35009DC79
:1001A000F0BC4FF0004202EAC352DBB200F500009F
:1001B00000F01ABB400000F1807000EBC350A0F1CA
:1001C000807040EAD170490009E0490841EAC071F5
:1001D000A0EBC35000F50000400800EBC350F0BC9A
:1001E00000F0F9BA6142012202EB4101001BF6E77F
:1001F000F0BC704781F00041AAE780F00040A7E71B
:1002000080EA010210B502F00043400022D04A000B
:100210001FD0010E01EB1261C0F35600C2F356026B
:1002200040F4000042F40002A0FB022000047F39E9
:10023000140400D0401C50EA124001D44000491E72
:10024000C2B20C0604EBD010401C4008802A02D039
:1002500003E0002010BD20F00100002900DA00209A
:10026000184310BD30B480EA010202F0004530F0BE
:10027000004221F0004013D090B1C30DD40DC2F361
:100280001601C0F31600E41A41F4000140F4000224
:100290007D34914201D3641C00E04900002C02DA55
:1002A00030BC002070474FF400000023914201D37E
:1002B000891A034340084FEA4101F7D151B19142F5
:1002C00002D14FF0004105E002D24FF0010101E000
:1002D0006FF0010103EBC450284430BC00F07BBA3E
:1002E0002DE9FE4F804681EA0300C00F0C460090C6
:1002F00021F0004123F00045B8EB0200A94105D2EE
:100300004046214690461C460B46024623F00040DC
:10031000104347D0270DC7F30A00C3F30A510290D8
:10032000401A019040286BDAC3F3130040F4801B9D
:100330000098924620B10023D2EB030A63EB0B0B2B
:1003400001985946C0F14002504600F013FA0646A3
:100350000D4650465946019A00F02BFA10EB080062
:100360006141002487EA115284EAE7731A4340D0BE
:10037000009A62B3019A012A4FEA075215DC001B6A
:1003800061EB02014FF0004202EA0752CDE9004260
:10039000001C41F5801132462B4600F062FA03B092
:1003A000BDE8F08F40462146F9E7001B61EB0201F2
:1003B000001C41F5801300185B412018A2F50017BE
:1003C00047EB030140EAD570B6196D4111E06D08A5
:1003D0004FEA360645EAC0754FEA0752001B61EB4B
:1003E0000201001C41F5801149084FEA3000001954
:1003F000514132462B4603B0BDE8F04F00F022BA1F
:100400000098012240000023D0EB020263EBE0736E
:10041000009821464FEAE074B8EB000061EB04015C
:10042000E9E783F000435BE781F0004158E72DE9FD
:10043000FE4F81EA030404F0004421F000410094DF
:100440004FF0000B23F0004350EA01045ED052EA63
:1004500003045BD0C3F30A54C1F30A552C44A4F23D
:10046000F3340194A0FB0254C1F3130141F4801151
:10047000C3F3130343F4801301FB024400FB034E58
:10048000840A970A44EA815447EA8357A4FB076821
:1004900002958D0A05FB07854FEA932C04FB0C544B
:1004A0002705029D4FEA065847EA1637B5EB0805BF
:1004B0006EEB070C870E920E47EA811742EA831211
:1004C000A7FB0201B6EB0B0164EB00042B0D43EA22
:1004D0000C335E1844EB1C50DA465146E7FB020130
:1004E000C5F313044FEA0B3343EA14534FEA0432C3
:1004F000019C43EA0603A4F10C040294009CCDE99C
:1005000000B400F0AEF903B0BDE8F08F0020014662
:10051000F9E72DE9F04D81EA030404F0004B21F0E6
:10052000004514464FF0000A23F0004150EA05024E
:1005300020D054EA01021DD0C5F30A570246C5F384
:100540001303C1F31300C1F30A5640F4801543F4BA
:100550008013A7EB0608101BD64608F2FD3873EB94
:10056000050002D308F1010801E092185B41B8F1DF
:10057000000F03DA00200146BDE8F08D00204FF4A3
:100580008011064684460EE0171B73EB050705D362
:10059000121B63EB050306434CEA010C49084FEAC2
:1005A000300092185B4150EA0107EDD152EA030096
:1005B00012D082EA040083EA0501084305D0101B2B
:1005C000AB4106D20122002306E000224FF0004397
:1005D00002E06FF0010253101AEB06004CEB0851D9
:1005E00010EB0A0041EB0B01BDE8F04D00F02AB919
:1005F00070B521F0004303430CD0C1F30A55002429
:10060000D5EB040564EB0403D617AD1AB34102DB46
:100610000020014670BD201841EB025170BDC10F92
:1006200080EAE0700844CA079623002100F0DCB895
:1006300096230022114600F0D7B80EB5C10F80EA0C
:10064000E0700844CA07002140F233438DE80E00F1
:100650000A460B4600F005F903B000BD0EB540F2A6
:10066000334102910021CDE900110A460B4600F00A
:10067000F8F803B000BD00F0004220F00040C10DCA
:10068000C0F3160040F400007F2901DA0020704713
:10069000962903DCC1F19601C84001E096398840F3
:1006A000002AF4D04042704770B5C1F30A5201F0FD
:1006B00000450024C1F3130140F2FF3341F48011DF
:1006C0009A4201DA002070BD40F233439A42A2F20E
:1006D000334203DC524200F05CF800E090402C43CF
:1006E000F1D0404270BD00F0004230F000400AD02E
:1006F000C10D01F56071C0F3160042EA0151C20854
:1007000040071143704700200146704730B5041E72
:1007100071F1000404DB4FF00044404264EB01013E
:10072000141E73F1000405DB1C464FF000435242D7
:1007300063EB04038B4208BF824230BD01F00043EB
:1007400030B421F0004150EA010206D00A0DA2F5B2
:100750006072C1F31301002A02DC30BC0020704734
:10076000440F44EAC104C100E01830BC00EBC250A1
:1007700000F031B8202A04DB203A00FA02F1002010
:1007800070479140C2F1200320FA03F319439040CF
:100790007047202A04DB203A21FA02F0002170473A
:1007A00021FA02F3D040C2F12002914008431946D9
:1007B0007047202A06DBCB17203A41FA02F043EAC1
:1007C000E07306E041FA02F3D040C2F1200291400A
:1007D0000843194670470029A8BF7047401C4900CC
:1007E00008BF20F00100704710B4B0FA80FC00FA96
:1007F0000CF050EA010404BF10BC704749B1CCF1C1
:10080000200421FA04F411FA0CF118BF012121434C
:100810000843A3EB0C01CB1D4FEA00614FEA102007
:1008200042BF002010BC704700EBC35010440029A9
:10083000A4BF10BC7047401C490008BF20F0010055
:1008400010BC704710B5141E73F1000408DA401C88
:1008500041F1000192185B411A4301D120F00100DF
:1008600010BD2DE9F04D92469B4611B1B1FA81F2CF
:1008700002E0B0FA80F220329046FFF77BFF044698
:100880000F4640EA0A0041EA0B0153465A46084324
:1008900013D0114653EA010019D0C8F14002504666
:1008A000FFF777FF05460E46504659464246FFF78A
:1008B00061FF084305D0012004E020463946BDE829
:1008C000F08D0020054346EAE0762C4337430A9832
:1008D0006305E40AA0EB08000022FD0A44EA47543D
:1008E0000A3002D500200146E9E7010510196941E7
:1008F000DDE9084500196941BDE8F04DA2E70000B7
:10090000064C074D06E0E06840F0010394E807005C
:1009100098471034AC42F6D3FFF7F0FB5C6C00084C
:100920007C6C000870B5044600680168C94349063C
:100930001CD4816821F00101816000F045FD05466D
:100940000FE000BF00F040FD401B022809D9E06C19
:1009500040F01000E064206D40F0010020650120AF
:1009600070BD20680068C0434006EBD5002070BD14
:10097000F8B500260446009600680168C943490698
:100980002AD5816841F0010181601448144900684A
:10099000B0FBF1F000EB400000E0401E00900028AA
:1009A000FBD100F011FD054611E000BF00F00CFD89
:1009B000401B02280BD9E06C40F01000E064206D71
:1009C00040F00100206584F848600120F8BD2068EF
:1009D0000068C0434006E9D40020F8BD08010020AB
:1009E00040420F002DE9F04141F2A271012000F0D8
:1009F000DBF841F63E71022000F0D6F841F2707447
:100A00002146032000F0D0F841F63F752946042026
:100A100000F0CAF83221052000F0C6F840F2CE718D
:100A2000062000F0C1F840F60201072000F0BCF8F3
:100A300040F69E71082000F0B7F84FF4FA66314690
:100A4000092000F0B1F86F1039460A2000F0ACF828
:100A500040F6D2710B2000F0A7F8A11E0C2000F088
:100A6000A3F804210D2000F09FF8A9100E2000F03B
:100A70009BF8311D0F2000F097F83946102000F048
:100A800093F8791D112000F08FF8611E122000F0FC
:100A90008BF8211D132000F087F82946142000F060
:100AA00083F80021152000F07FF80321162000F0C4
:100AB0007BF83146172000F077F8F11C182000F081
:100AC00073F87100192000F06FF8391D1A2000F03A
:100AD0006BF821461B2000F067F8E11C1C2000F099
:100AE00063F829461D2000F05FF84FF4807421461A
:100AF0001E2000F059F80749212000F055F806495A
:100B0000222000F051F82146BDE8F041232000F0FA
:100B10004BB80000414101001010010010B501F078
:100B2000A9FF4FF4FA6000F055FBFFF75BFFBDE84B
:100B3000104001F06DBF00002DE9F041114F044657
:100B40004FF4004600223146384600F038FC0120C0
:100B500000F01AF8204603F0F9FA03F09FFA054670
:100B600003F09CFA044603F099FA804601223146CC
:100B7000384600F024FC280440EA042040EA08003B
:100B8000BDE8F0810000024010B50446002003F0EB
:100B9000DDFA002003F0DAFA002003F0D7FA20464D
:100BA000BDE8104003F0D2BA2DE9F041104E0C46DA
:100BB00007464FF4004500222946304600F0FFFB6F
:100BC0000020FFF7E1FF384603F0C0FAC4F3074006
:100BD00003F0BCFAC4F3072003F0B8FAE0B203F064
:100BE000B5FA29463046BDE8F041012200F0E7BBE6
:100BF00000000240114810B5016886B041F00101C3
:100C0000016000680E4C00F001000590202000906B
:100C10000120019003906946204600F005FB002268
:100C20002021204600F0CBFB052000F0D3FA012262
:100C30002021204600F0C3FB06B010BD1C38024046
:100C400000000240044B012804D000222021184655
:100C500000F0B5BB0122F9E700000240FEE7704753
:100C60004FF4805000F0D2BA7047000070B5184CB5
:100C70000025184800F032FA3221164800F0DAF95F
:100C8000144800F0D3F82188084420806D1CADB2D0
:100C90001E2DEED30F4800F05CFA20881E21B0FB19
:100CA000F1F020802088FFF7C3FC0B49FFF7DAFA48
:100CB000FFF719FD02460B4608480949FFF729FCD2
:100CC000FFF73CFDA06000202080A06870BD000000
:100CD000F00000208829002000F07F453108AC1C7E
:100CE0005A64F33FF8B50024009490F84820254654
:100CF000012A12D0012280F848204A681F23072ABF
:100D00000DD20668376C521E02EB820293409F435D
:100D10000B6893401F43376435E00220F8BD0D2A6D
:100D20000BD20768FE6BD21F02EB820293409E43F8
:100D30000B6893401E43FE6325E0132A0BD206681E
:100D4000B76B0D3A02EB820293409F430B689340CE
:100D50001F43B76317E00668192A0AD2776B133A64
:100D600002EB820293409F430B6893401F437763DB
:100D700009E0376B193A02EB820293409F430B68FC
:100D800093401F4337630A6807230A2A0AD206687A
:100D9000776902EB420293409F438B6893401F4365
:100DA00077611CE0142A0BD207683E690A3A02EB0D
:100DB000420293409E438B6893401E433E610EE087
:100DC0001A2A0BD80768FE68143A02EB42029340D5
:100DD0009E438B6893401E43FE6000E000BF0A689C
:100DE000102A01D0112A17D10D4A13681B0213D4FF
:100DF000136843F400031360096810290CD10949F2
:100E0000094A0968B1FBF2F101EB8101490000E0F8
:100E1000491E00910029FBD180F848502046F8BDBA
:100E2000042701400801002040420F000068806D47
:100E300070470000F8B504004FF0000503D0E06CE7
:100E4000002610B110E00120F8BD26655C4884F84A
:100E50004860016841F001010160006800F0010094
:100E60000090204600F0B6F8E06CC0067AD4E06C42
:100E700020F4885040F00200E06452480168626843
:100E800021F44031114301606169E0684FF400735F
:100E9000084394F83C2093FAA3F3B3FA83F3216A4E
:100EA0009A4011430843022194F8242091FAA1F1B9
:100EB000B1FA81F102FA01F10843616B102902D005
:100EC000A36B19430843236819684FF48077C9431B
:100ED000490629D5A169D4F81CC00843A168D4F8F3
:100EE00010E041EA0C01BE450CD0BEF1010F09D063
:100EF0004FF0000C41EA0C0194F82CC0BCF1010F3A
:100F000002D00AE0BC46F5E76AB3E26C42F0200288
:100F1000E264226D42F0010222655A68DFF8A8C03F
:100F200002EA0C020A435A6021688A68274B1A4079
:100F300002438A602169B94224D0012922D0216864
:100F40000A6B22F0F8720A6321688968204A11400E
:100F5000814227D12665E06C20F0020040F00100BC
:100F6000E0642AE028E0FFE74FF4604C226B9CFA33
:100F7000ACFCBCFA8CFC521E02FA0CF20A4342F49E
:100F80000061CAE721680A6B4FF0F87722F0F87326
:100F9000A26A97FAA7F7B7FA87F7521EBA40134327
:100FA0000B63D1E7E06C20F0020040F01000E06439
:100FB000206D40F00100206501252846F8BD0000A5
:100FC0002038024004270140FF16FCFC8DF1FFC0D1
:100FD000FEFF80BF10B586B0044614216846FFF7B7
:100FE000ACF81149206888421CD11048016841F4CE
:100FF00000710160006800F4007005900B48001F4C
:10100000016841F0020101600068694600F00200D9
:1010100005900220009003200190002002900448D7
:1010200000F002F906B010BD002401402038024053
:10103000000402402DE9F041044600680D46816835
:101040004FF0000749050BD58068C00508D5E06C56
:1010500040F02000E06484F848700120BDE8F08191
:1010600000F0B2F906460FE0681C0DD025B100F083
:10107000ABF9801BA84207D9E06C40F00400E064A3
:1010800084F848700320E9E7206800688007EBD502
:10109000A06918B921686FF012000860E06C40F494
:1010A0000070E0642068816811F0405F14D194F80A
:1010B000241089B9016B11F0F87F02D080684005D7
:1010C0000AD4E06C20F48070E064E06CC00403D4C7
:1010D000E06C40F00100E0640020BFE710B504467A
:1010E00090F84800012822D0012084F848002046CA
:1010F000FFF73EFC00281BD1E16C40F201629143F6
:1011000041F48071E16421684A68520505D5E26CBA
:1011100022F4005242F48052E264E26CD3044FF0B5
:10112000000206D5236D23F00603236502E00220AA
:1011300010BD226584F848206FF022020A60216801
:101140008A6812F0405FF3D18A6842F080428A6078
:1011500010BD10B5044690F84800012807D00120C2
:1011600084F848002046FFF7DDFB10B107E00220BD
:1011700010BDE16C21F4885141F00101E1640021CE
:1011800084F8481010BD10B590F8211000240229F1
:1011900003D00421816301241AE001680A6822F067
:1011A0000E020A6001680A6822F001020A6090F8E3
:1011B0004010C36B01F01C02012101FA02F25A60D7
:1011C00080F82110002180F82010416B01B1884780
:1011D000204610BD70B5044600F0F6F80546601CC8
:1011E00002D004484068044400F0EEF8401BA042DE
:1011F000FAD370BDFC000020B0F5805F02D1024937
:1012000001200870704700002400002070B5054DD3
:1012100004462868204203D02046FFF7EDFF2C60EB
:1012200070BD0000140401402DE9F84FDFF864B1EF
:1012300000234FF0010C4FF0030A4FF00F090BF1A0
:10124000040EA0E00CFA03F6324072D04C68022C77
:1012500001D0122C0ED1DC0800EB8408D8F8204015
:101260005D07EF0E09FA07F5AC430D69BD40254354
:10127000C8F8205007685D0091F804800AFA05F468
:1012800008F00308A74308FA05F848EA0708C0F879
:1012900000804F68012F05D0022F03D0112F01D0FD
:1012A000122F11D18768D1F80C80A74308FA05F8EE
:1012B00048EA0708C0F808804768B7430E79C6F3C4
:1012C00000169E403E434660C668A6438C68AC400C
:1012D0003443C4604C68E40054D52F4C256845F075
:1012E00001052560246823F0030504F0010400943F
:1012F0002A4C2544AF689C07240F09FA04F6B7432B
:10130000274EB04201D1002615E0264EB04201D151
:10131000012610E0244EB04201D102260BE0234EFC
:10132000B04201D1032606E0214EB04202D104268C
:1013300001E027E00526A6403E43AE60DBF8004012
:101340005D464E689443F60300D514432C60DEF8E6
:10135000004075464E689443B60300D514432C6094
:101360000C4D08352C684E689443F60200D51443A2
:101370002C60084D0C352C684E689443B60200D59D
:1013800014432C605B1C0A6832FA03F47FF45AAFF2
:10139000BDE8F88F00040140203802400000014001
:1013A000000002400004024000080240000C02401D
:1013B000001002400069084000D0012070470AB1C7
:1013C000816170470904FBE70148806870470000AD
:1013D000FC00002002488168426811448160704727
:1013E000FC00002010B50024032000F079F8002054
:1013F00000F008F808B1012401E000F025F82046CB
:1014000010BD000070B50E4E05460024706898B1FE
:101410004FF47A71B1FBF0F00A490968B1FBF0F0C2
:1014200000F03BFE40B9102D06D200222946501E86
:1014300000F036F8356000E00124204670BD000061
:10144000FC000020080100200D4808B5016841F0AB
:1014500000410160016801F000410091011F0A682C
:1014600042F001020A60096801F00101009101687F
:1014700041F080510160006800F08050009008BD8C
:1014800024380240002809DB00F01F0201219140AE
:101490004009800000F1E020C0F800117047000012
:1014A000F0B40E4B1B680C46C3F30223C3F10705CF
:1014B000042D00D90425191D072901D2002300E0BD
:1014C000DB1E012606FA05F1491E214099409E4087
:1014D000761E16403143F0BC03F043B90CED00E03A
:1014E000064900F0070208684FF6FF03184040EA7B
:1014F0000220034A10430860704700000CED00E032
:101500000000FA052DE9F0470E46050079D0DFF816
:101510008481D8F8000000F00100B04214D2012EFE
:1015200005D1D8F8001041F00401C8F80010D8F82F
:10153000001021F001013143C8F80010D8F8000074
:1015400000F00100B0425CD12878534C800705D5EB
:101550002068A96820F0F000084320602878C007C0
:101560005CD04D496868083902281AD003281BD07E
:10157000096801281BD08905002966DA216821F055
:10158000030101432160FFF71FFF6968074641F22D
:101590008830022914D0032920D0012981462AD07D
:1015A00038E009688903E7E709688901E4E7890702
:1015B000E2E700BFFFF708FFC11B494501D926E05C
:1015C00081462068C0F381000228F3D126E000BFE5
:1015D000FFF7FAFEC11B494501D918E08146206892
:1015E000C0F381000328F3D118E000BFFFF7ECFE41
:1015F000C11B49450BD82068C0F381000128F5D1F3
:101600000CE022E0FFF7E0FEC11B494502D90320B0
:10161000BDE8F087206810F00C0FF3D1D8F8001067
:10162000404601F00101B14211D9012E03D10168F8
:1016300041F004010160016821F0010131430160C2
:10164000006800F00100B04201D00120E0E72878F6
:10165000400705D52068E96820F4E0600843206071
:101660002878000706D52068296920F4605040EAF0
:10167000C100206000F018F82168084AC1F3031186
:10168000515CC8400649086006480068BDE8F0475C
:10169000FFF7B8BE003C024008380240496C000821
:1016A00008010020FC000020134A116801F00C0022
:1016B00004280CD008280CD00C280CD0101F00686F
:1016C000C0F342314FF40040491C884070470B483A
:1016D00070470B4870470B48C1F383431268C05CE6
:1016E000C1F38151491CD20301D5054A00E0034AE8
:1016F0005043B0FBF1F07047083802400024F4007A
:1017000000127A00406C00082DE9F84F04007DD0EB
:10171000FC480168006801F00C0700F4803620786E
:10172000F94DC00741D0082F12D00C2F02D1B6F5C9
:10173000803F0DD06068012811D008B1052818D06D
:10174000286820F480302860286820F4802009E090
:101750002868800329D560680028D8D025E028684B
:1017600040F480302860606890B1FFF72DFE80461D
:101770000AE0286840F480202860F0E7FFF724FEA4
:10178000A0EB080064287BD828688003F6D50CE01D
:10179000FFF71AFE804605E0FFF716FEA0EB0800F3
:1017A0006428F0D828688003F6D42078DFF85CB38A
:1017B000DFF85C8380074FF001094FF0000A35D550
:1017C000042F0AD00C2F00D13EB1E068F8B1C8F860
:1017D0000090FFF7F9FD06460BE0286880070BD55F
:1017E000E068012812D107E0FFF7EEFD801B022818
:1017F000C9D828688007F7D5DBF80010226921F4E2
:10180000F85141EA0221CBF800100FE077E1C8F867
:1018100000A0FFF7D9FD064605E000BFFFF7D4FDA5
:10182000801B0228AFD828688007F7D42078C0062C
:1018300074D53FB1A069E0B3C8F82090FFF7C4FDAC
:1018400006464AE02868800502D5A069002884D0B1
:10185000206ADBF800105E4601F46041884210D92E
:1018600002F012FB0028BDD13068216A20F46040EC
:1018700008433060217F306861F31F6030600FE003
:1018800096E0316821F4604101433160217F306886
:1018900061F31F603060206A02F0F6FA0028A1D1DF
:1018A000216A4FF4004009EB51318840954909689D
:1018B00000E025E0974AC1F30311515CC840964906
:1018C000086096480068FFF79DFD00286FD125E06D
:1018D000FFF77AFD801B02286AD828688005F7D5B3
:1018E000DBF80010226A21F460411143CBF80010AC
:1018F000227FDBF8001062F31F61CBF800100DE0CF
:10190000C8F820A0FFF760FD064604E0FFF75CFD85
:10191000801B02284CD828688005F7D42078804E98
:10192000000722D57F48616981B1C0F80090FFF7B8
:101930004BFD834606E000BFFFF746FDA0EB0B0022
:10194000022835D830688007F6D50EE0C0F800A030
:10195000FFF73AFD834605E0FFF736FDA0EB0B00ED
:10196000022825D830688007F6D4207840076DD546
:101970006B484FF0000B10380068C0000BD468486B
:101980001038016841F08051016000684FF0010B90
:1019900000F08050009064480168C90514D40168C3
:1019A00041F480710160FFF70FFD009008E08DE0C9
:1019B00079E000BFFFF708FD0099401A642872D84B
:1019C00059480068C005F5D5A06801280AD008B1BB
:1019D000052811D0306820F480703060306820F421
:1019E000806002E0306840F480703060A068A8B188
:1019F000FFF7EAFC00900DE0306840F48060306052
:101A0000F0E700BFFFF7E0FC0099411A41F288308F
:101A100081425AD830688005F4D50EE0FFF7D4FC37
:101A2000009007E0FFF7D0FC0099411A41F288309E
:101A300081424AD830688005F4D4BBF1000F05D04C
:101A400037481038016821F080510160606A58B34E
:101A50000C2F41D00228504605D0C8F86000FFF78F
:101A6000B3FC044634E04746C8F86000FFF7ACFC1E
:101A7000064604E0FFF7A8FC801B022825D828684A
:101A80008001F7D4D4E90A1001431E48226B036891
:101A900023F47D031A4311430160C7F86090FFF7F8
:101AA00093FC044607E010E040E000BFFFF78CFC29
:101AB000001B022809D828688001F7D536E000BF4E
:101AC000FFF782FC001B022802D90320BDE8F88F33
:101AD00028688001F4D429E00128F7D0094800687B
:101AE000A26A00F48031914209D1E26A00F47011D7
:101AF000914204D1216B00F44000884216D00120AD
:101B0000E4E7000008380240003802400438024090
:101B100000004742496C000808010020FC0000203A
:101B20003438024080064742007000400020CDE774
:101B300070B5040005D00025A56294F8510010B1DD
:101B400006E0012070BD84F85050204600F02AF8CD
:101B5000022084F851002068016821F040010160F2
:101B6000D4E901010843D4E9031211430843616930
:101B70000843218B01F400710843E1690843216A9D
:101B80000843A16A084321680860A069042101EAAA
:101B90001040216848606565012084F851000020EC
:101BA00070BD000010B586B0044614216846FEF7EB
:101BB000C4FA13492068884220D11248016841F4D0
:101BC00080510160006800F4805005900D48001FAE
:101BD000016841F0020101600068694600F00200FE
:101BE00005903820009002200190002002900320F0
:101BF0000390052004900448FFF716FB06B010BDC3
:101C00000030014020380240000402402DE9F84F26
:101C1000044640680025984616460F464FF0040BD0
:101C2000B0F5827F01D1A06888B194F850000128F6
:101C300018D0012084F85000FFF7C6FB814694F8C5
:101C400051004FF0000A01280ED002257DE084F8F3
:101C500051B013460A462046CDF8008000F02CF91A
:101C6000BDE8F88F0220FBE7002F6DD0002E6BD06F
:101C700084F851B0C4F854A0A763A687E687C4F8D7
:101C800030A0A4F834A0A4F836A0C4F840A0C4F84A
:101C900044A0A068B0F5004F04D12068016821F489
:101CA0008041016020680168490603D4016841F061
:101CB00040010160E068D8B139E020688168C90757
:101CC00009D0007BA16B0870A06B401CA063E08F63
:101CD000401EE0870CE0FFF777FBA0EB09014145D0
:101CE00003D3B8F1FF3F03D036E0B8F1000F33D093
:101CF000E08F0028E1D11DE020688168C90709D084
:101D0000C068A16B0880A06B801CA063E08F401EA0
:101D1000E0870CE0FFF758FBA0EB0901414503D336
:101D2000B8F1FF3F03D017E0B8F1000F14D0E08FF7
:101D30000028E1D14A464146204602F04FF908B159
:101D400020206065606D00B10125012084F85100FC
:101D500084F850A0284683E70325F6E72DE9F84FDD
:101D6000044690F8500000271D4616468946012873
:101D70000DD04FF0010B84F850B0FFF725FB8046E3
:101D800094F85100BA46012804D002278EE00220C0
:101D9000BDE8F88FB9F1000F7DD0002E7BD0032075
:101DA00084F85100C4F854A0C4F83090A686E686A2
:101DB000C4F838A0A4F83CA0A4F83EA0C4F844A0FD
:101DC000C4F840A0A068B0F5004F04D120680168B5
:101DD00041F48041016020680168490603D401682C
:101DE00041F040010160E068B0F5006F606803D029
:101DF00030B3012E24D040E008B1012E1CD1206B5D
:101E000021680088C86006E020688168890709D5D4
:101E1000216B0988C160206B801C2063E08E401E0E
:101E2000E08609E0FFF7D0FAA0EB0800A84202D351
:101E3000681C01D031E07DB3E08E0028E4D11FE0C2
:101E4000206B21680078087306E0206881688907A4
:101E500009D5216B09780173206B401C2063E08E4B
:101E6000401EE08609E0FFF7AFFAA0EB0800A842A9
:101E700002D3681C01D010E075B1E08E0028E4D1D7
:101E800042462946204602F0D7F808B12020606576
:101E9000A06820B107E008E0FFE7032706E020681C
:101EA000C16880680090606D00B1012784F851B06E
:101EB00084F850A038466BE72DE9F84F044690F8B7
:101EC000500000270A9E1D4692468B464FF001099E
:101ED00001280ED0012084F85000FFF775FA8046E3
:101EE00094F85100616801280CD0B1F5827F07D1C8
:101EF00002E00220BDE8F88FA16809B9042801D0EA
:101F00000227C2E0BBF1000F27D0BAF1000F24D0A6
:101F10001DB394F85100042802D0052084F8510024
:101F200000206065C4F838A0E587A587C4F830B004
:101F3000E586A5862064606420680168490603D4AC
:101F4000016841F040010160E068B0F5006F606831
:101F500005D0E8B3012D46D07FE0012795E008B118
:101F6000012D39D1206B21680088C860206B801C4E
:101F70002063E08E401EE0862EE02068816889079D
:101F80000FD5E18E69B1B9F1010F0AD1216B098832
:101F9000C160206B801C2063E08E401EE0864FF005
:101FA000000920688168C9070CD0E18F51B1C06871
:101FB000A16B0880A06B801CA063E08F401EE087AF
:101FC0004FF00109FFF700FAA0EB0800B04200E073
:101FD00009E001D3701C50D1E08E0028CDD1E08FF4
:101FE0000028CAD13FE0206B216800780873206B7D
:101FF000401C2063E08E401EE0862EE02068816851
:1020000089070FD5E18E69B1B9F1010F0AD1216BB2
:1020100009780173206B401C2063E08E401EE0862F
:102020004FF0000920688168C9070CD0E18F51B1D9
:10203000C068A16B0870A06B401CA063E08F401EBD
:10204000E0874FF00109FFF7BFF9A0EB0800B042AD
:1020500002D3701C01D010E07EB1E08E0028CDD1FB
:10206000E08F0028CAD142463146204601F0E4FF05
:1020700028B101272020606507E0032705E0A0685C
:1020800018B92068C16880680090012084F8510068
:10209000002084F8500038462CE710B5401EB0F1FF
:1020A000807F01D3012010BD4FF0E02460610F213B
:1020B000601702F056FB0020A0610720206100207D
:1020C00010BD70B590F83820012A19D0012400F80D
:1020D000384F0222427050F8383C5A689D6822F00E
:1020E00070060A684968324325F0800529435A6022
:1020F00050F8382C9160447000210170084670BD82
:10210000022070BD10B5040003D094F8390010B15E
:1021100007E0012010BD002084F83800204600F0C0
:102120000DF8022084F83900211D206802F0DEF944
:10213000012084F83900002010BD000008B50168B6
:102140001D48B1F1804F11D01C4A91421DD1016848
:1021500041F0020101600068002200F002000090DE
:1021600001211D20FFF79CF91D201FE0016841F0AF
:10217000010101600068002200F00100009011469A
:102180001C20FFF78DF91C2010E00D4A914211D15F
:10219000016841F0040101600068002200F00400C1
:1021A000009001211E20FFF77BF91E20BDE80840AA
:1021B000FFF768B908BD0000243802400004004061
:1021C000000800400168CA6842F00102CA60006865
:1021D000816801F00701062903D0016841F001017F
:1021E00001600020704770B5044690F8380001285F
:1021F00017D0012584F83850022084F8390020686F
:10220000826822F0770222F47F42826008685028B8
:1022100030D00DDC20284DD005DC98B310283BD100
:1022200048E0022070BD302844D0402834D139E045
:10223000602828D0702806D0B0F5805F2CD0B0F58B
:10224000005F29D10AE0CB68D1E90121206802F0C2
:1022500087F92068816841F0770109E0CB68D1E90E
:102260000121206802F07CF92068816841F48041F6
:10227000816011E0CA684968206802F083F9502142
:10228000206807E016E0CA684968206802F08BF908
:102290006021206802F06EF984F83950002084F83B
:1022A000380070BDCA684968206802F06BF94021A7
:1022B0002068EFE7226801461046EBE7704770B5EB
:1022C0000446006801694FF00005C943890715D429
:1022D000C168C943890711D4E91E01610120207634
:1022E000206880698007204602D0FFF7E7FF04E0FE
:1022F00000F078F8204600F076F82576206801692D
:10230000C943490717D4C168C943490713D46FF0BB
:1023100004010161022020762068806910F4407F6A
:10232000204602D0FFF7CAFF04E000F05BF8204629
:1023300000F059F8257620680169C943090716D4C9
:10234000C168C943090712D46FF008010161042074
:1023500020762068C0698007204602D0FFF7AEFFD4
:1023600004E000F03FF8204600F03DF825762068B4
:102370000169C943C90617D4C168C943C90613D442
:102380006FF010010161082020762068C06910F408
:10239000407F204602D0FFF791FF04E000F022F8D2
:1023A000204600F020F8257620680169C943C90756
:1023B00008D1C168C943C90704D1891E01612046FB
:1023C00000F012F820680169C943490609D4C168C0
:1023D000C943490605D46FF040010161204600F071
:1023E0002FF970BD704770472DE9F05F0068B0F1BC
:1023F000804F7DD1854CDFF818920126A078854F5B
:10240000DFF814820025012862D1DFF810A29AF8C3
:10241000000001285CD1206D401C20652E20FEF7B5
:102420008BFB20632F20FEF787FBE062206B01F01F
:102430006BFDA063E06A00F081FA794B79497A4A32
:10244000606398420BDA0E7089F8006088F80060CB
:1024500088F80550A5623D601560257136E00223BD
:102460000B7089F8005088F800501268414662B13C
:102470003A6852B18E7188F80560A179226DB2FB7D
:10248000F1F301FB132222B112E08D7188F805509F
:10249000F3E7B4F810C0654BBCFBF1F243F822003F
:1024A000BCFBF1F0A3F5D262A36B42F820302565A6
:1024B000208AC1EB0111401C80B2C1EBC101208216
:1024C000B0EB810F02D12582E670A5708AF800502A
:1024D00040215748FEF76EFF0028606A36D0022878
:1024E00004D9606AC82801D265622670606A00E07B
:1024F00081E0C82801D96562667099F8000010B1C2
:10250000206A401C2062A08B4A4E401C81B2A183ED
:10251000608B4FF00A0B401C82B26283E08B401C40
:10252000E08398F80030A3B198F80400012862D144
:10253000B1FBFBF20BFB121000285CD1A5833078B5
:10254000401CC0B23070652859D059E0401C606210
:10255000D3E7C14698F80200DFF8DC804EF6602A27
:10256000012817D13968BAFBF1F01421B0FBF1F062
:10257000B2FBF0F100FB112060B9607B90F001002C
:102580006073658398F8001001D0012000E00220FC
:1025900001F046F999F8041001292CD199F80600A8
:1025A00058B33968BAFBF1F06421B0FBF1F0A18BAC
:1025B000B1FBF0F200FB121000281CD1A58330788B
:1025C00001F0F0FA3078401CC0B23070642800D9B5
:1025D000357099F8050001280DD11848A17B405CA1
:1025E00098F8001001F064F9A07B401CC0B2A07301
:1025F0000A2800D3A573BDE8F09FA18B98E735703A
:102600003078BDE8F05F01F07BBA000044000020A4
:10261000CB000020D0000020DC000020240000209F
:102620000042EF00CA000020D400002080220020D9
:1026300000000240CC000020C8000020E300002081
:102640007047704770B5026804461068D1685369D6
:1026500010F00F0F50D003F0010501F490763543D0
:102660005DD0C20705D0CA0503D5E26B42F0010276
:10267000E263420705D5DA0703D0E26B42F00202BB
:10268000E263820705D5DA0703D0E26B42F0040269
:10269000E263020705D5DA0703D0E26B42F00802D5
:1026A000E263E26B002A33D0800604D5880602D5A7
:1026B000204601F0A0FF20684069E16BC0F3801064
:1026C000090700D428B3204601F087FF206841693C
:1026D00049061AD5416921F040014161606BA0B102
:1026E0001B494163606BFEF74EFD002810D0606B04
:1026F000416BBDE870400847830610D58B060ED5A8
:102700002046BDE8704001F076BF2046FFF799FFF4
:1027100070BD2046FFF795FF0020E06370BD030603
:1027200006D50B0604D52046BDE8704001F0AEBFCB
:102730004006F3D54806F1D5D168204621F0400186
:10274000D160202184F8391000F0F5F870BD000048
:10275000CB45000890F83A30202B22D1F9B1F2B1E4
:1027600090F83830012B1CD081628285C28500210F
:10277000C163222280F83A2080F838100168CA68C4
:1027800042F48072CA6001684A6942F001024A61FB
:102790000068C16841F02001C1600020704701203D
:1027A000704702207047000070B500682E498842CB
:1027B00059D1304D2D4E2E4CA8783178012221541C
:1027C000401CA87031462C48FFF7C4FF30782328FE
:1027D00049D1607968612279AA61E178E961A378D9
:1027E000120443EA006042EA01210843686021784C
:1027F000552936D1204410F8010C232831D16078B6
:10280000512804D0522805D053282AD105E002F0DF
:1028100017FC26E00120687023E0617AA960207A25
:10282000090441EA0021E860E07901432961A079C7
:102830001C2802D8FEF7B8F913E01D38062810D27C
:10284000DFE800F0030507090B0D1D20F2E71E204D
:10285000F0E72120EEE72220ECE72320EAE7202022
:10286000E8E70020A87070BD00380140ED000020AE
:102870000C05002024000020E82A00202DE9F84360
:10288000044690F839001F4616460D46202850D1C0
:10289000A5B19EB194F8380001284AD0012084F8EF
:1028A00038004FF00008C4F83C80212084F839003B
:1028B000FEF78AFDA6848146E68426E00120BDE875
:1028C000F883E08C401EE084A0684B46B0F5805F42
:1028D0004FF000024FF080012046009703D001F036
:1028E00006FFE8B90DE001F002FFC8B928882168A9
:1028F000C0F308004860206908B16D1C05E0AD1CFC
:1029000003E0216815F8010B4860E08C0028D8D15D
:102910004B46002240212046009701F0E8FE08B116
:102920000320CCE7202084F8390084F83880002088
:10293000C5E70220C3E77047FEE700002DE9FE4F20
:10294000254C0546D4E90061216002916060E06891
:10295000FDF773FE214A224BFDF769FD0191A16845
:10296000834608460091FDF768FE1E4A1E4BFDF7A0
:102970005EFD81468A463046FDF75FFE1B4A1C4BD2
:10298000FDF755FD074688460298FDF756FE194AA1
:10299000194BFDF74CFD02900E462846FDF74DFE03
:1029A000124A134BFDF743FD3346029AFDF798FC9C
:1029B0003A464346FDF794FC4A465346FDF731FD3F
:1029C0005A46019BFDF72DFDFDF76EFE0099C4E907
:1029D0000201BDE8FE8F0000D01B002019A5F045C4
:1029E0002083E83FF0A86BCC6FC1FBBF6045FC794A
:1029F0000904803F72BCC8250A04903F03480021A7
:102A0000416001608160C16070470000D01B002000
:102A100000B587B014216846FDF78FFB12480168A6
:102A200041F002010160016801F0020105910168B5
:102A300041F0010101600068694600F00100059065
:102A40000A48019002200290C00200900848FEF758
:102A5000EBFB002201212820FEF722FD2820FEF7B3
:102A600011FD07B000BD00001C380240000011102D
:102A70000000024010B501F077FB01F0FDFA0122E1
:102A8000D1020548FEF79BFC0122BDE810409102EF
:102A90000248FEF794BC000000000240000402401F
:102AA0000B4800B5016887B041F002010160006881
:102AB000694600F00200059040200090002001903F
:102AC000022002900348FEF7AFFB07B000BD0000F4
:102AD0001C380240000002403EB500211848009119
:102AE0000191164A029102604FF48032C0E901213F
:102AF0009211C160C0E904128161C161016280F874
:102B000024100124846280F82C101022C0E90D21C9
:102B100080F83C10FEF78EF908B1FEF7A5F81120F9
:102B2000CDE900040720029069460548FEF7DAF86F
:102B3000002801D0FEF798F83EBD000000240140B7
:102B400088290020104810B50E4901604FF48271A9
:102B5000416000218160C1604FF400720161C0E9F1
:102B600005121022C0E90721416281620A21C16277
:102B7000FEF7DEFF002803D0BDE81040FEF774B872
:102B800010BD000000300140DC29002030B587B0C6
:102B90000025194C009501950295039504954FF079
:102BA0008040059520601F20C4E9010541F287306F
:102BB000C4E90305802060612046FFF7A3FA08B14D
:102BC000FEF752F84FF48050009069460A48FFF72C
:102BD0000AFB08B1FEF748F8049504A906480595D4
:102BE000FFF76FFA08B1FEF73FF821686FF00100B8
:102BF000086107B030BD0000342A0020FEE77047AE
:102C000030B40021084B0A465FF0000003EBC0041B
:102C1000401CC0B262548028F8D3491CC9B20829AC
:102C2000F2D330BC00F0AEBB0C010020CA0801F0AA
:102C3000070301219940044B03EBC003985C61EA50
:102C40000000C043985470470C0100202DE9F84F54
:102C50000124DFF804940325DFF800A4DFF800B4B2
:102C6000DFF800840E460746012844D0022F7DD0AD
:102C7000032F7CD0042F3CD10321D9F8000000F0B1
:102C800073FDF9480090282310221221602000F0E3
:102C9000FFFCF5482823A0300090102212212C20A0
:102CA00000F0F6FC012E7CD098F806000028FAD03F
:102CB00001281ED12E232C2212210020009500F085
:102CC00051FA2E23242212213C20009500F04AFACA
:102CD00004240094202312213E20DAF8002000F082
:102CE00089FC0094182312210A20DBF8002000F050
:102CF00081FCBDE8F88F0121D9F8000000F034FD17
:102D000000211023D9A2084600F00CFD1023D9A2FF
:102D10000021382000F006FD012E21D0022EE8D13E
:102D200098F806004646D8B30128E2D120235C2259
:102D300014210820009500F015FA7470B470202357
:102D400014210820DAF8002000F01EFCDBF8002037
:102D500001B01823BDE8F04F1A21402000F014BC48
:102D60000121032000F05CFD384601E04AE0CBE0A1
:102D700000F086FE20235C2214210820009500F03C
:102D8000F1F91023BDA219210A2000F0CBFC01B0FB
:102D90001023BDE8F04F1921BAA2412000F0C2BCB7
:102DA00000E024E198F805000028A2D101210320C9
:102DB00000F036FD20235C2214210820009500F04D
:102DC000D1F906230E2223211020009400F0CAF925
:102DD00006230E2223212120009400F0C3F90623AC
:102DE0000E2223214320009400F0BCF906230E227A
:102DF00023215420009400F0B5F92046BDE8F84F97
:102E000000F03EBE0021C02001F004F80021A02007
:102E100001F000F80121D9F8000000F0A5FC002124
:102E2000102392A2084600F07DFC102391A20021FD
:102E3000382000F077FC012E02D0022E1BD0D2E009
:102E40000121032000F0ECFC384600F019FE20239D
:102E50005C2214210820009500F084F9102387A239
:102E600019210A2000F05EFC102386A219214120BE
:102E700000F058FCB7E098F806004646B8B12023A9
:102E80005C2214210820009500F06CF97470B47075
:102E9000202314210820DAF8002000F075FB182305
:102EA0001A214020DBF8002000F06EFB9BE001219E
:102EB000032000F0B5FC20235C221421082000959B
:102EC00000F050F906230E2223211020009400F078
:102ED00049F906230E2223212120009400F042F913
:102EE00006230E2223214320009400F03BF9062301
:102EF0000E2223215420009400F034F900F042FA0D
:102F0000384600F0BDFD6EE00221D9F8000000F067
:102F10002BFC5548282350300090102216210E20FB
:102F200000F0B6FB50482823F03000901022162104
:102F3000442000F0ADFB012E05D098F8060010B13A
:102F4000012832D04FE00321084600F069FC3846E2
:102F500000F096FD2C23262216211E20009500F05D
:102F600001F92C231A4616215420009500F0FAF896
:102F70001023062219212D20009400F0F3F81023CD
:102F800006222B212D20009400F0ECF810230622BD
:102F900019216920009400F0E5F8102306222B2166
:102FA0006920009400F0DEF81DE02C232622162173
:102FB0001E20009500F0D6F82C231A461621542026
:102FC000009500F0CFF80095202330212120DAF879
:102FD000002000F00FFB0095182330215C20DBF867
:102FE000002000F007FBBDE8F84F00F0CBB904214A
:102FF000032000F015FC384600F042FD00F0C2F955
:103000002E232C2212210020009500F0ABF82E2355
:10301000242212213C20009500F0A4F8102306225F
:1030200019214920009400F09DF8102306222B213D
:103030004920009400F096F8192110230622084632
:10304000009400F08FF8102306222B211920009401
:1030500000F088F84DE60000D8000020D4000020E1
:10306000D0000020DC000020406A00082553704F8B
:1030700032000000505262706D00000053656E73A4
:103080006F7200004F6666002DE9F0470D46DDF8CF
:1030900020800646802A1BD8402B19D8964217D884
:1030A0009D4215D85C1B964214D100270EE000BF4C
:1030B00005EB0700C1B2B8F1000F304602D000F0B6
:1030C00043F801E0FFF7B2FD7F1CFFB2BC42EFDA2C
:1030D000BDE8F087971B9D4213D100240EE000BF8E
:1030E00006EB0400B8F1000FC0B2294602D000F090
:1030F0002BF801E0FFF79AFD641CE4B2A742EFDA77
:10310000E6E7E0B200EB80004000F9B2B0FBF1F07E
:1031100000F0FF0900244FF00A0A12E004FB09F056
:10312000B0FBFAF02844C1B206EB0400B8F1000F7E
:10313000C0B202D000F008F801E0FFF777FD641C90
:10314000E4B2A742EADAC3E7CA0801F007030121A3
:103150009940034B03EBC000835C0B4383547047DF
:103160000C0100202DE9F843814609EB0204089880
:10317000641E1F460E464FF00108012806D00228A3
:1031800015D0032811D10025A8463EE000250AE00D
:103190007019C3B2C1B2E2B24846CDF80080FFF761
:1031A00073FF6D1CEDB2BD42F2D3BDE8F883334628
:1031B000E2B219464846CDF80080FFF765FFF519E1
:1031C0006D1EEBB2E2B2E9B24846CDF80080FFF7DF
:1031D0005BFF4A46EBB231461046CDF80080FFF760
:1031E00053FFEBB2E2B2E0B23146CDF80080FFF718
:1031F0004BFFDAE77019C3B2C1B2E2B24846CDF86C
:103200000080FFF741FF6D1CEDB2BD42F2D3CCE769
:10321000564810B5016886B041F020010160016890
:1032200001F020010591016841F001010160006891
:103230004F4C00F0010005901F20009001200190EC
:1032400002900320039069462046FDF7EDFF01221E
:103250001F212046FEF7B3F8012204212046FEF785
:10326000AEF86420FDF7B6FF002204212046FEF7E9
:10327000A6F8C820FDF7AEFF012204212046FEF784
:103280009EF80021AE2000F0C5FD0021084600F0A8
:10329000C1FD0021102000F0BDFD0021402000F004
:1032A000B9FD0021812000F0B5FD0021CF2000F004
:1032B000B1FD0021A12000F0ADFD0021C82000F0EB
:1032C000A9FD0021A62000F0A5FD0021A82000F006
:1032D000A1FD00213F2000F09DFD0021D32000F042
:1032E00099FD0021084600F095FD0021D52000F051
:1032F00091FD0021802000F08DFD0021D92000F0FB
:1033000089FD0021F12000F085FD0021DA2000F088
:1033100081FD0021122000F07DFD0021DB2000F066
:1033200079FD0021402000F075FD0021202000F0F3
:1033300071FD0021022000F06DFD00218D2000F0C4
:1033400069FD0021142000F065FD0021A42000F09B
:1033500061FD0021A62000F05DFD0021AF2000F0FE
:1033600059FDFFF74DFC06B010BD00001C380240AF
:10337000000002400246012000E05043491EC9B24D
:10338000FBD2704770B5114E002400BF04F1B000AD
:10339000C0B2002100F03EFD0021084600F03AFDD9
:1033A0000021102000F036FD5FF0000506EBC5009F
:1033B0000121005D00F02EFD6D1CEDB2802DF5D3D6
:1033C000641CE4B2082CE1D370BD00000C010020A5
:1033D0002DE9FF4F1C460E468946580700D00120B4
:1033E00000EBD4006108484300F0FF0A029820383F
:1033F00000F0FF0B002546E00C2C18D0102C1AD042
:10340000182C1CD0202C40D12149029801EB8010AF
:103410002844A0F5805090F8007400BF4FF00008D9
:1034200038060098314615D5FFF78EFE14E00BEBF9
:103430004B0018490AE0184901EB0B1008E002980C
:103440001649303800F0FF0B0BEBCB0001EB80008E
:10345000475DE3E7FFF7EAFB7806761C070EF6B256
:10346000A6EB0900A04205D100984E46401CC0B210
:10347000009006E008F1010000F0FF08B8F1080F25
:10348000CED36D1CEDB25545B6D3BDE8FF8F00001D
:10349000B85C0008EC50000860550008505B00085C
:1034A0002DE9FF4F81B01D4693460C468A465807CA
:1034B00000D0012000EBD5006908484300F0FF0967
:1034C000182D03D109F10C0000F0FF090BEB4B00A4
:1034D0004FF00008009049E0202D07D0182D47D16B
:1034E0000E98032814D0042815D01EE00E98032847
:1034F00002D0042802D018E01F4900E01F4901EB68
:103500008B1101EB0800A0F5805090F800640CE0EE
:103510001B49009801E01B49009801EB001101EBE9
:103520000800A0F5805090F8006700273006019849
:10353000214602D5FFF708FE01E0FFF777FB700692
:10354000641C060EE4B2A4EB0A00B0EB550F05D1E3
:1035500001985446401CC0B2019003E07F1CFFB2AA
:10356000082FE3D308F1010000F0FF08C845B3D3EA
:1035700005B0BDE8F08F0000385F000878650008EE
:10358000B8610008986300082DE9F04F9A468B4611
:1035900081461746002516464FF00A0803E0B6FBA1
:1035A000F8F66D1CEDB2002EF9D100244FEA5A0650
:1035B00016E0281B401EC1B20A20FFF7DBFEB7FB56
:1035C000F0F1B1FBF8F208FB121068B13030C2B272
:1035D00006FB0490C0B253465946FFF7F9FE641C3F
:1035E000AC42E6D3BDE8F08F06FB0490C0B2534670
:1035F0003022F1E72DE9FF4F81B09A4616468B46FF
:10360000002710464FF00A080E9D03E0B0FBF8F0CB
:103610007F1CFFB20028F9D100244FEA5A0932E09A
:10362000381B401EC1B20A20FFF7A4FEB6FBF0F122
:10363000B1FBF8F208FB121020B1032D12D0042DBB
:1036400016D01FE0032D02D0042D04D01AE009FB90
:1036500014B0009502E009FB04B00095C1B25346D6
:1036600030220CE03030C2B209FB14B0009504E007
:103670003030C2B209FB04B00095C1B25346019884
:10368000FFF70EFF641CBC42CAD305B0BDE8F08F43
:103690002DE9FF4F82B08046019092460C464FF0D4
:1036A00000098B46580700D0012000EBD30005909D
:1036B000002030E0002629E00F98002510F809705E
:1036C00009F101001FFA80F9F8072146404602D0AF
:1036D000FFF73AFD01E0FFF7A9FA641C6D1C7F08B3
:1036E000EDB2E4B2082DEFD308F10100019900F02A
:1036F000FF08A8EB0101514505D10BF10800DDF8E9
:10370000048000F0FF0B761C5C46F6B25645D3D31E
:103710000098401CC0B2009005998842CAD306B0F8
:10372000BDE8F08F2DE9F04104461E468020154685
:103730008846A0EB56070FE0334641462046FFF788
:1037400047FE04EB5600C4B2A74204D208F10200BF
:10375000002400F0FF086D1C2A78A2F120005E28EA
:10376000EAD9BDE8F081000038B5274A284C831813
:10377000264A0444024427484FF40015012907D083
:1037800002291DD0032913D183422DD8224834E0C9
:10379000834202D82048503803E0AA4209D21E488A
:1037A000243000900C23162202216A20FFF770FFBC
:1037B00038BD844202D818489830F2E71748F0E73D
:1037C000834202D81448243803E0AA4207D21248A0
:1037D000503016230C22232100900020E6E784427B
:1037E000E6D80E484838F4E7AA4202D20A487430B4
:1037F00003E08442DCD80948243816230C222A210D
:1038000000907220D2E70000CCCCCCBFCCCCECBF77
:10381000999919C0CCCC2C0048680008546900085C
:1038200008B5224A012913D0022911D0032924D036
:10383000042921D1012833D0022834D003281BD1F8
:1038400002F1540000900E230D220221732011E09A
:10385000012807D0022808D003280DD113481C30B6
:10386000009003E011485038FAE700920D230E2231
:1038700032217120FFF70CFF08BD012807D0022874
:1038800008D00328F8D109483830009003E00748F1
:103890003438FAE700920E230D2202210020E9E7D6
:1038A00002481A38CEE70092CDE70000D069000840
:1038B0002DE9F847DFF8C4A12D264FF07C098AF8DE
:1038C00000009AF801304FF0020898427BD20322A0
:1038D000012906D0022928D003294AD004295DD025
:1038E000C5E05A3B03EBD37121F001041B1B03EB32
:1038F0006101491ECCB25A3800EBD07121F00103AE
:10390000C01A00EB610517466D1E0BE0604206EB26
:103910008000C1B202230A2274200097FFF722FC24
:10392000641EE4B2A542F1DBA1E05A3B03EBD37184
:1039300021F001041B1B03EB6101491ECCB25A3874
:1039400000EBD07121F00103C01A00EB61051746AE
:103950006D1E0BE0604206EB8000C1B202230A221A
:1039600074200097FFF7FEFB641EE4B2A542F1DB72
:103970007DE05B3BDCB21646A0F15B050BE06042EC
:1039800009EB80000222C0B20A2311460096FFF71D
:10399000E9FB641EE4B2AC42F1DC68E05B3BDCB204
:1039A0001646A0F15B050AE008EB84000222C0B2D3
:1039B0000A2311460096FFF7D5FB641EE4B2AC4221
:1039C000F2DC54E0FFE700F00102A0F15A0404EB3E
:1039D000D470012502EB6007012906D0022915D019
:1039E000032924D0042933D041E000240BE06142B4
:1039F00006EB8100C1B202230A2274200095FFF772
:103A0000B1FB641CE4B2A742F1DC30E000240BE01F
:103A1000614206EB8100C1B202230A2274200095A4
:103A2000FFF7A0FB641CE4B2A742F1DC1FE0002614
:103A30000BE0714209EB81000222C0B20A23114659
:103A40000095FFF78FFB761CF6B2A642F1DB0EE085
:103A500000260AE008EB86000222C0B20A231146C3
:103A60000095FFF77FFB761CF6B2A642F2DB9AF8D0
:103A700000008AF80100BDE8F8870000000000207F
:103A8000F8B50124012815D0032826D0042810D128
:103A90000025022606EB85000222C0B20A23114649
:103AA0000094FFF75FFBFFF76DFC6D1CEDB2082D76
:103AB000F0D3F8BD00252D26684206EB8000C1B288
:103AC00002230A2274200094FFF74CFBFFF75AFCF4
:103AD0006D1CEDB2042DEFD3F8BD00257C266842A5
:103AE00006EB80000222C0B20A2311460094FFF7C1
:103AF00039FBFFF747FC6D1CEDB2082DEFD3F8BD85
:103B000038B5044601200090E2B2E0B23F233621EE
:103B1000FFF7BAFA601C0025C2B2C0B23F233421BD
:103B20000095FFF7B1FAA01CC2B2C0B23F23342106
:103B30000095FFF7A9FAE01CC2B2C0B23F233421BE
:103B40000095FFF7A1FA241DE2B2E0B23F23342131
:103B50000095FFF799FA38BD18B5114C20231022B3
:103B6000114618460094FFF793FD102220231146BA
:103B700030200094FFF78CFD04F1400010220090EB
:103B8000202311464020FFF783FD04F1800010221E
:103B90000090202311465020FFF77AFD18BD000049
:103BA000806B00082DE9F843DFF83C92DFF83C8297
:103BB0000446D9F80410D8F800004A468C4D002677
:103BC0005769814235D0A7BB4FF47A712846FCF77C
:103BD000B4FAD8F80010484600220B46DFF814C2A9
:103BE000C9F8041006E000BF5CF8228045F8228086
:103BF000521C92B29A42F7DB2A6805EB8103866178
:103C0000826053F8043C03614B1EC361C260002311
:103C1000D0F820C008E000BF55F82380904501DDB2
:103C200042469C465B1C9BB28B42F5DBC260C9F8E6
:103C300020C0D9F820300C22012049469F4233DAB7
:103C4000002F31DBCB68D9F80810C8465B1A93FB0C
:103C5000F2F255F82730591A91FBF2F10C2905DBE5
:103C600000903F23E2B2E0B234210CE00029E2B23E
:103C7000009003DC3F23E0B2194604E0C1F13F00AD
:103C8000C1B2E0B23F23FFF7FFF9D8F80410404675
:103C9000491E3129D8F8141001D2891C00E0C91C32
:103CA0000A464161016A35E09F4238DBCB699F4299
:103CB00035DACB68D9F81010C8465B1A93FBF2F2DC
:103CC00055F82730591A91FBF2F10C2905DB0090C9
:103CD0003F23E2B2E0B234210CE00029E2B20090CE
:103CE00003DC3F23E0B2194604E0C1F13F00C1B25A
:103CF000E0B23F23FFF7C8F9D8F804104046491E48
:103D00003129D8F8141001D2C91C00E0491D0A4617
:103D10004161C1698A4227DBC8F8141024E0CB68EE
:103D2000D9F81010C8465B1A93FBF2F255F8273009
:103D3000591A91FBF2F10C2905DB00903F23E2B206
:103D4000E0B234210CE00029E2B2009003DC3F2312
:103D5000E0B2194604E0C1F13F00C1B2E0B23F2336
:103D6000FFF792F9C8F81460601C642800961BD90C
:103D70006538C2B2C0B23F233221FFF785F9A4F102
:103D80006300C2B2C0B23F2332210096FFF77CF934
:103D9000A4F16200C2B2C0B23F2332210096FFF705
:103DA00073F9613C009617E0C2B2C0B23F233221E2
:103DB000FFF76AF9A01CC2B2C0B23F2332210096BD
:103DC000FFF762F9E01CC2B2C0B23F233221009675
:103DD000FFF75AF9241D0096E2B2E0B23F233221E8
:103DE000FFF752F9BDE8F883000000206C000020C6
:103DF000200500200809002010B50021C82000F08F
:103E000009F80021A12000F005F8BDE81040FFF7F7
:103E1000B9BA000070B51A4E054609B1012200E09A
:103E2000002208213046FDF7CAFA00221021304650
:103E3000FDF7C5FA0024002201213046FDF7BFFA44
:103E4000280601D5012200E0002202213046FDF7BC
:103E5000B6FA012211463046FDF7B1FA6806641C35
:103E6000050EE4B2082CE6D3012210213046FDF7FE
:103E7000A6FA3046BDE8704001220821FDF79FBA3E
:103E8000000002407047000038B51C490023096853
:103E90001B4A11F0F00F23D118491C310C68E500C2
:103EA000184C03D5216801F4C0540EE00D6845F0AC
:103EB00080550D600D6805F08055009524680D68EB
:103EC00004F4C05425F080550D60B4F5C05F07D1EF
:103ED000B0F5404F04D11068012340F00400106099
:103EE000106820F0010018431060106800F0010015
:103EF000984201D0012038BD002038BD083802406A
:103F0000003C0240007000402DE9FE4F254C054664
:103F1000D4E90061216002916060E068FCF78DFBEC
:103F2000214A224BFCF783FA0191A1688346084697
:103F30000091FCF782FB1E4A1E4BFCF778FA814683
:103F40008A463046FCF779FB1B4A1C4BFCF76FFA9C
:103F5000074688460298FCF770FB194A194BFCF794
:103F600066FA02900E462846FCF767FB124A134B8E
:103F7000FCF75DFA3346029AFCF7B2F93A4643463B
:103F8000FCF7AEF94A465346FCF74BFA5A46019BFA
:103F9000FCF747FAFCF788FB0099C4E90201BDE889
:103FA000FE8F0000E01B002019A5F0452083E83FAC
:103FB000F0A86BCC6FC1FBBF6045FC790904803F62
:103FC00072BCC8250A04903F03480021416001608B
:103FD0008160C16070470000E01B0020F8B5044616
:103FE00040684FF48273984221D1A0684FF48065F5
:103FF000B0F5004F01D0A8420AD12068066826F02B
:10400000400606606068984211D1A068A8420ED0B0
:1040100000920B4600228021204600F04DF8002837
:1040200004D0606D40F0200060650320F8BD009270
:104030000B4600220121EFE738B504464068B0F591
:10404000827F04D094F85100052805D012E0009238
:104050000B460022802103E000920B460022012142
:10406000204600F029F828B1606D40F0200060651E
:10407000032038BD002038BD00B585B04FF40040A6
:1040800000900120019002900320039069460248AD
:10409000FDF7CAF805B000BD0000024008B54FF6B4
:1040A000FF73012269460348FDF7B0FD9DF800004B
:1040B00008BD0000DC2900202DE9F0411D4617460F
:1040C0000E460446DDF8188008E0681C06D0FDF7AF
:1040D0007BF9A0EB0800A8420BD255B1206880689C
:1040E00036EA000030D00020B842EED10020BDE812
:1040F000F0812068416821F0E00141606068B0F51E
:10410000827F0BD1A068B0F5004F02D0B0F5806F70
:1041100004D12068016821F040010160A06AB0F577
:10412000005F09D12068016821F400510160206816
:10413000016841F400510160012084F85100002021
:1041400084F850000320D2E70120CDE701B54FF6F7
:10415000FF73012269460248FDF700FE08BD00001A
:10416000DC2900207047000070B586B001244FF4B0
:104170000066CDE90064032569460C48CDE9024597
:10418000FDF752F80020CDE90060094E694602941F
:104190003046FDF749F8A002CDE9000469463046F3
:1041A000CDE90245FDF740F806B070BD00000240C1
:1041B00000040240FDF70EB910B592B034216846F4
:1041C000FBF7BBFF14210DA8FBF7B7FF11480168EF
:1041D00021F4C05141F400610160012103910220EA
:1041E0001021009000240491CDE9090440040B90B3
:1041F00000010C906846FDF787FA0F200D90032010
:10420000CDE90E04109401210DA81194FDF77AF95F
:1042100012B010BD007000400F48016841F4807179
:1042200001600D4908310A680C4B1A400A600268A7
:104230000B4B1A400260026822F480220260086878
:1042400020F47D0008600020091D086005494FF03A
:104250000060086070470000003802400CC0FF8812
:10426000FEFFFEEE08ED00E02DE9F0474FF0804044
:104270000169C9077ED0016921F001010161884C03
:10428000A078012876D1DFF81CA29AF80000DFF8A8
:1042900018920126854FDFF81882002501285CD18D
:1042A000206D401C20652E20FCF746FC20632F204B
:1042B000FCF742FCE062206BFFF726FEA063E06A99
:1042C000FEF73CFB7B4B7C497C4A606398420BDAEF
:1042D0000E7089F8006088F8006088F80550A562C3
:1042E0003D601560257136E002230B7089F800509F
:1042F00088F800501268414662B13A6852B18E7136
:1043000088F80560A179226DB2FBF1F301FB13225D
:1043100022B112E08D7188F80550F3E7B4F810C0AF
:10432000674BBCFBF1F243F82200BCFBF1F0A3F5B4
:10433000D262A36B42F820302565208AC1EB0111BF
:10434000401C80B2C1EBC1012082B0EB810F02D1D1
:104350002582E670A5708AF8005040215948FDF783
:1043600029F80028606A37D0022806D9606AC82870
:1043700003D200E084E065622670606AC82801D933
:104380006562667099F8000010B1206A401C2062D6
:10439000E08A0A23401C82B2E282A08A4A4E401C74
:1043A00081B2A182208B401C208398F800C0BCF110
:1043B000000F14D098F80400012861D1B2FBF3F08B
:1043C00003FB102000285BD1E5823078401CC0B28E
:1043D000307065285DD05DE0401C6062D2E7C14668
:1043E00098F80200DFF8E4804EF6602A012816D122
:1043F0003A68BAFBF2F0B0FBF3F0B1FBF0F200FB6D
:10440000121060B9E07A90F00100E072A58298F88D
:10441000001001D0012000E00220FFF701FA99F816
:10442000041001292CD199F8060058B33968BAFB59
:10443000F1F03221B0FBF1F0E18AB1FBF0F200FBC8
:10444000121000281CD1E5823078FFF7ABFB3078E2
:10445000401CC0B23070642800D9357099F805004E
:1044600001280DD11A48217B405C98F80010FFF715
:104470001FFA207B401CC0B220730A2800D325738A
:10448000BDE8F087E08A0521B0FBF1F201FB1200E4
:1044900098E735703078BDE8F047FFF731BB000092
:1044A0004400002024000020CB000020D000002089
:1044B000DC0000200042EF00CA000020D4000020F1
:1044C0008022002000000240CC000020C800002014
:1044D000E30000200148FDF7F2BE0000702A002032
:1044E0000148FDF7ECBE0000AC2A002070B5026860
:1044F0004FF08046154B164CB04203D0984201D085
:10450000A04205D122F070054A682A43B0420CD07F
:1045100098420AD0A04208D00E4B984205D00E4BCC
:10452000984202D00D4B984203D122F44073CA68DE
:104530001A430B6922F080021A4302608A68C26241
:10454000096881620121416170BD000000040040E2
:104550000008004000080140000C0140001001402C
:1045600010B5846842EA032224F47F440A432243BC
:10457000826010BD826822F070020A4342F0070197
:104580008160704710B5036A046A24F00104046274
:10459000846924F0F00444EA021423F00A020A4376
:1045A0008461026210BD10B5036A23F01003036238
:1045B0008369046A23F4704343EA023224F0A003BF
:1045C00043EA01118261016210BD10B5406A002109
:1045D000C185C184FEF735F810BD0168CA6822F4B0
:1045E0009072CA6001684A6922F001024A61202182
:1045F00080F83A10704710B590F83A10222901D08F
:10460000022010BD8168B1F5805F11D001690029D9
:1046100001681FD0496801F07F03816A4A1C8262E9
:104620000B70C18D491E0904090CC18518D02BE0FF
:104630000269816A002A0268526805D0D2B20A80F3
:10464000816A491C8162ECE7C2F308020A80816A30
:10465000891CF7E74A68816A4B1C83620A70E0E7AD
:104660000168CA6822F02002CA600168CA6822F4A0
:104670008072CA6001684A6922F001024A61202101
:1046800080F83A10FEF790F8002010BD90F839102D
:10469000212901D0022070478168B1F5805F016A4D
:1046A0000BD04A1C0262026809785160C18C491E15
:1046B0000904090CC1840ED017E009880268C1F30F
:1046C0000801516001690029016A02D0491C016298
:1046D000ECE7891CFBE70168CA6822F08002CA6027
:1046E0000068C16841F04001C160002070472DE9B9
:1046F000F041984617460E460446069D1DE0681C8C
:104700001BD02DB1FCF760FEA0EB0800A84214D925
:104710002068C16821F4D071C1602068416921F02E
:1047200001014161202084F8390084F83A0000201A
:1047300084F838000320BDE8F0812068006836EA7C
:10474000000004D00020B842D9D00020F3E70120B7
:10475000F9E700000148FDF775BF0000E82A0020D6
:10476000FEE70907090E002804DB00F1E02080F8CD
:104770000014704700F00F0000F1E02080F8141DD5
:10478000704702E008C8121F08C1002AFAD170471A
:104790007047002001E001C1121F002AFBD17047C1
:1047A0002DE9F04FD9B050211AA8FBF7C6FC5021D3
:1047B00005A8FBF7C2FC50212EA8FBF7BEFC502138
:1047C00042A8FBF7BAFCFF490020A1F5D262A2F58E
:1047D0005C66A1F55C634FF4D27400BF51F82050C1
:1047E00046F8205052F8205043F82050401C9A467A
:1047F000A042F3DB5021F448FBF79FFCF248502124
:10480000A030FBF79AFCF04850215030FBF795FCA4
:10481000ED485021F030FBF790FCEC4DEA4A0020C7
:10482000A0324FF4D274E865214602F1A00000F0F6
:1048300027FAE54A6872214602F5A07000F09CFA5A
:10484000E14AA872F032214602F5DC6000F018FA65
:10485000DD4A2146503202F5F06000F08DFAAC7A64
:10486000012C02D8687A287200E02C7295F8089022
:10487000AB46B9F1020F58460FD28179012902D017
:10488000022904D101E0022100E003218171C9B2B3
:1048900001EB81018BF805104FE1002CFCD0457A2B
:1048A000002DF9D0A91C8C42F6D2A81ED84684420D
:1048B000F2DD00274FF47A71C548FBF73EFCC44B8C
:1048C0004046AC4229D203F59161D1E900C2A2EB86
:1048D0000C0808F10108C0F8288007E056F822808B
:1048E000521EC8F1000843F827807F1C9445F5DD6F
:1048F0000022A9F10103C76D0CE000BF01EB820C9F
:1049000011F822809CF804C0521CACEB080C0CF08F
:10491000FF0C67449A42F1DB26E0AB49D1E9002C59
:10492000ACEB020808F10108C0F8288006E000BFDF
:1049300056F8228043F82780521C7F1C9445F7DAF2
:104940000022A9F10103C76D0CE000BF01EB820C4E
:1049500011F822809CF804C0521CACEB080C0CF03F
:10496000FF0C67449A42F1DBC765AC4200D92C4684
:10497000C47183460027D0F858805EE09248924B7D
:10498000F030503350F827104FF4D27053F82730DE
:1049900091FBF0F293FBF0F500FB121100FB1535D3
:1049A0005AF821105AF82550491B1AAD091145F83B
:1049B00027100D4693FBF0F100FB11315AF821103E
:1049C0000A1205A9944641F827207F49A03151F8E1
:1049D000271091FBF0F200FB121156F821307A49B2
:1049E00051F8272092FBF0F100FB112156F821101D
:1049F000591A2EAB091143F8271092FBF0F300FB74
:104A0000132042AA56F82000001242F827001990FD
:104A100001FB0CF0FBF703FE039019986843FBF7CA
:104A2000FEFD0399FBF71EFC6A49FBF7E9FB014613
:104A30004046FBF78DFB80467F1CA7429EDB5C4611
:104A40003846CBF85880FBF7EAFD01464046FBF7B5
:104A500009FC6065FBF747FE4FF033325E4BFBF716
:104A6000E6FC00225D4BFBF7DFFC00225C4BFBF712
:104A700050FDFBF719FE64276064642800D9676461
:104A80000025A5656079FBF7D3FD8046A9F10100FB
:104A9000FBF7C5FD0646E06DFBF7C1FD3146FBF7B0
:104AA000E1FB4146FBF7ACFB01464E48FBF7DAFB66
:104AB000FBF7E1FD80B260824449A36C743151F888
:104AC0002320642A01D941F823702279DFF8FCE021
:104AD000DFF81491454E0EF1680E4FF4967A042AD1
:104AE00031D0504501D9A4F812A0606C642800D9D7
:104AF0006764638A33600020F446E5634CF8203035
:104B0000401CC0B21D440328F8D3E563636C002049
:104B100041F82030401CC0B20428F9D3521CC9F817
:104B200000302271D9F80010642901D9C9F8007049
:104B30003168514501D9C6F800A001218BF8021057
:104B400059B0BDE8F08F4FF0000C2A46C4F8405031
:104B500051F82C800CF1010C0CF0FF0C4244BCF11C
:104B6000040FF5D351F823C0A2EB0C0C626C41F892
:104B700023205B1C02EB0C01A3642164042B00D1F5
:104B8000A564CA1701EB927189106164C9F800101D
:104B9000A0F11A01B1F5897FC4D8A84629460022A0
:104BA0007346E56353F82250521CD2B22944032ABB
:104BB000F8D3E56C53F825204EF82500891A0844EF
:104BC000E06315E080220020F00C0020440000206B
:104BD0000809002000401C4633B33740A09D3241F5
:104BE0000088C34000606A47D4000020D000002045
:104BF000FBF734FD0022084BFBF78BFC0022074B30
:104C0000FBF76EFBFBF750FD6D1C3060E564032D78
:104C100088D1C4F84C8085E7000008400000F83FC8
:104C2000F0B50546002001234F1E26E005EB830466
:104C300055F8236054F804CC66451DDD6468A6422F
:104C40001ADB04DD42F8203000F1010014E003F12A
:104C5000020401E004F101048C4203DA55F824C097
:104C6000B445F7D08C420AD055F824C0664502DD21
:104C700042F82030401C631E5B1CBB42D6DBF0BDFB
:104C80002DE9F74FADF5D36D0DF5D3606A4603C836
:104C9000FFF7C6FF83460DF5D36003C800F080F828
:104CA00082460DF5D36003C800F08AF8AAEB000035
:104CB000FBF7C3FC4FF0FF32FBF79AFC8146002064
:104CC0000E460546CDF890064EE000BF5DF8254043
:104CD000DDF8980650F82410AAEB0100FBF7ADFCB4
:104CE0004A463346FBF712FD3DD84FF0010EA4F1C2
:104CF000140004F1140722E000281FDBDDF89C16E5
:104D000088421BDADDF8981651F8242051F820105B
:104D10008A4201DA4FF0000E10D14FF00001DDF8A9
:104D2000A036DDF8902607E053F821C0844502D173
:104D30004FF0000E02E0491C9142F5DB401CB842E6
:104D4000DADDA4F15000F1280DD2BEF1010F0AD135
:104D5000DDF89016DDF8A00640F82140DDF8900659
:104D6000401CCDF890066D1C5D45AFDBDDF890066C
:104D70000DF2A46DBDE8F08F30B5ADF2946D002357
:104D80006C4605E050F823506D4244F823505B1CFC
:104D90008B42F7DB2046FFF773FF0DF2946D30BDB9
:104DA00010B503460068012206E000BF53F8224018
:104DB000844200DD2046521C8A42F7DB10BD000011
:104DC00010B503460068012206E000BF53F82240F8
:104DD000844200DA2046521C8A42F7DB10BD0000F4
:104DE00008B5FCF7FFFAFFF7E7F9FDF775FEFDF7E9
:104DF000A9FEFBF7FFFEFEF70BFAFDF751FEFEF7EB
:104E0000ABFEFEF7BFFAFBF789FEFDF7F9FEFBF7F5
:104E10002DFF824C206101212069FEF7A5FC0021B5
:104E200010237FA20846FEF77DFC10237EA20021FE
:104E30003820FEF777FCFEF7A5FAFDF7A7FE7C48C1
:104E4000FDF7C0F9002565612583A576FDF7D6FD40
:104E5000FFF7BAF8DFF8DCB1DFF8DCA1DFF8DC91AE
:104E6000A046012704F11406D8F80C004446A0B16E
:104E7000A06890B10220A070E570CBF800503570AA
:104E80007771B771B7702078012826D002284ED0EC
:104E900003286FD0042833D18BE0E770DBF80010D3
:104EA000584621B10168C82901D8B571EBE70168FE
:104EB000C82905D90168B1F5C86F01D2A770E2E72A
:104EC0000168B1F5C86FDED3A7700560E5700020FA
:104ED000FBF7B8FE37707571D5E73771A0784F4A88
:104EE000F378012802F11B020BD002210120FDF70B
:104EF000ADFEFEF747FA9AF800105046012902D09D
:104F000081E00121F2E705706078401CC0B260705A
:104F1000022878D125713771032000901023652273
:104F200036210020FEF71EF9022020706BE0A078E9
:104F30003A4AF378012802F11B020BD00221022029
:104F4000FDF784FEFEF71EFA9AF80010504601297C
:104F500002D058E00121F2E705706078401CC0B231
:104F6000607003284FD13571F5702070FEF744FF53
:104F700047E0FFE7A078294AF378012802F11B02F5
:104F80000BD002210320FDF761FEFEF7FBF99AF832
:104F900000105046012902D035E00121F2E70570EA
:104FA0006078401CC0B2607004282CD1F57020706D
:104FB00027E0A078194AF378012802F11B020BD0F0
:104FC00002210420FDF742FEFEF7DCF99AF80010FA
:104FD0005046012902D016E00121F2E70570607801
:104FE000401CC0B2607005280DD1257137710320B7
:104FF00000901023652236210020FEF7B3F8677079
:105000002770FDF7FDFD99F800004C4601287FF45C
:105010002BAFFFF7C5FB257026E70000C800002076
:105020002553704F32000000505262706D00000036
:10503000342A0020640000204400002047000020A3
:1050400070B5C2B0002470256E462046FBF774FD93
:1050500046F82400641CE4B21C2CF6D91D20FBF792
:105060006BFD1D901E20FBF767FD1E902120FBF7B6
:1050700063FD1F902220FBF75FFD20902320FBF7AC
:105080005BFD21902020FBF757FD229055208DF8E5
:105090008C0051208DF88D008DF88E50280A8DF8E7
:1050A0008F00280C8DF89000280E8DF891000020BC
:1050B0000DF18C0356F8201000EB40021A440C0A44
:1050C0009171090C401CD471C0B211722328F1D324
:1050D00023208DF8FB004FF6FF73702223A90248AE
:1050E000FDF7CCFB42B070BDE82A002000000000B4
:1050F0000000000000000000000000003F40000031
:1051000000000000000030004000300040000000BF
:1051100009000BC03D000BC03D00090018C0244031
:105120007FE0224031800000180024C01B000D8069
:105130003240018003801C4027401C800740004013
:1051400010006000000000000000000000000000EF
:1051500000001F80204040200000402020401F8091
:1051600000000000090006001F8006000900000082
:10517000040004003F8004000400000000100060F0
:10518000000000000000000004000400040004000F
:1051900004000000000000400000000000000000CB
:1051A000002001C006003800400000001F802040A1
:1051B000204020401F800000000010403FC0004001
:1051C0000000000018C02140224024401840000088
:1051D00010802040244024401B80000002000D006D
:1051E00011003FC0014000003C8024402440244086
:1051F000238000001F8024402440344003800000AE
:105200003000200027C03800200000001B80244010
:10521000244024401B8000001C0022C02240224069
:105220001F80000000000000084000000000000097
:105230000000000004600000000000000000040006
:105240000A001100208040400900090009000900FF
:105250000900000000004040208011000A00040006
:105260001800200023402400180000001F80204068
:10527000274029401F400000004007C039000F00B0
:1052800001C0004020403FC0244024401B8000005B
:105290001F802040204020403080000020403FC040
:1052A000204020401F80000020403FC024402E406E
:1052B00030C0000020403FC024402E0030000000DD
:1052C0000F001080204022403380020020403FC069
:1052D000040004003FC02040204020403FC0204048
:1052E000204000000060202020203FC0200020003F
:1052F00020403FC024400B0030C0204020403FC031
:1053000020400040004000C03FC03C0003C03C00C3
:105310003FC0000020403FC00C4023003FC02000A1
:105320001F802040204020401F80000020403FC0C0
:1053300024402400180000001F802140214020E06C
:105340001FA0000020403FC02440260019C000409C
:1053500018C024402440224031800000300020400A
:105360003FC020403000000020003F80004000404F
:105370003F80200020003E0001C0070038002000D0
:10538000380007C03C0007C038000000204039C08A
:10539000060039C0204000002000384007C03840D7
:1053A00020000000304021C02640384020C00000CE
:1053B000000000007FE0402040200000000070005E
:1053C0000C000380004000000000402040207FE0EF
:1053D000000000000000200040002000000000004D
:1053E000001000100010001000100010000000005D
:1053F0004000000000000000000002800540054061
:1054000003C0004020003FC004400440038000006F
:1054100000000380044004400640000000000380B8
:10542000044024403FC00040000003800540054088
:1054300003400000000004401FC02440244020001E
:10544000000002E0055005500650042020403FC0F7
:105450000440040003C000400000044027C0004096
:105460000000000000100010041027E00000000001
:1054700020403FC00140070004C0044020402040BD
:105480003FC000400040000007C0040007C0040007
:1054900003C00000044007C00440040003C00040F3
:1054A000000003800440044003800000041007F063
:1054B00004500440038000000000038004400450B6
:1054C00007F00010044007C0024004000400000080
:1054D000000006400540054004C000000000040034
:1054E0001F8004400040000004000780004004408A
:1054F00007C000400400070004C00180060004004B
:10550000060001C0070001C006000000044006C0FC
:10551000010006C0044000000410071004E00180F0
:10552000060004000000044005C0064004400000DE
:105530000000000004007BE04020000000000000AC
:105540000000FFF000000000000040207BE00400AD
:1055500000000000400080004000200020004000CB
:10556000000000000000000000000000000000003B
:105570000000000000001FCC000C00000000000034
:1055800000000800300060000800300060000000EB
:10559000022003FC1E20022003FC1E20022000002B
:1055A00000000E1811043FFF10840C78000000006A
:1055B0000F0010840F3800C00778188400780000AE
:1055C00000780F8410C411240E9800E400840008B1
:1055D00008006800700000000000000000000000EB
:1055E00000000000000007E018182004400200003E
:1055F000000040022004181807E00000000000002E
:105600000240024001800FF0018002400240000091
:105610000080008000800FF8008000800080000083
:105620000001000D000E000000000000000000005E
:1056300000000080008000800080008000800080EA
:105640000000000C000C0000000000000000000042
:10565000000000060018006001800600180020000D
:10566000000007F0080810041004080807F0000004
:105670000000080408041FFC0004000400000000EF
:1056800000000E0C10141024104411840E0C0000A5
:1056900000000C1810041104110412880C70000092
:1056A000000000E00320042408241FFC0024000064
:1056B00000001F981084110411041088107000005D
:1056C000000007F008881104110418880070000019
:1056D00000001C00100010FC13001C001000000053
:1056E00000000E3811441084108411440E3800005C
:1056F00000000700088C10441044088807F00000E0
:10570000000000000000030C030C0000000000007B
:105710000000000000010106000000000000000081
:10572000000000800140022004100808100400005E
:10573000022002200220022002200220022000007B
:10574000000010040808041002200140008000003E
:1057500000000E001200100C106C10800F000000F2
:1057600003E00C1813E4142417C4082807D0000021
:105770000004003C03C41C40074000E4001C00047B
:1057800010041FFC1104110411040E8800700000A5
:1057900003E00C1810041004100410081C10000082
:1057A00010041FFC100410041004080807F0000087
:1057B00010041FFC1104110417C410040818000081
:1057C00010041FFC1104110017C010000800000095
:1057D00003E00C181004100410441C780040000072
:1057E00010041FFC10840080008010841FFC100433
:1057F0000000100410041FFC10041004000000003E
:1058000000030001100110011FFE10001000000035
:1058100010041FFC110403801464181C1004000001
:1058200010041FFC1004000400040004000C00001D
:1058300010041FFC1F0000FC1F001FFC10040000D0
:1058400010041FFC0C04030000E010181FFC1000E3
:1058500007F00808100410041004080807F00000FE
:1058600010041FFC10841080108010800F000000B6
:1058700007F0081810241024101C080A07F2000072
:1058800010041FFC1104110011C011300E0C000493
:1058900000000E1C11041084108410441C380000F9
:1058A0001800100010041FFC100410001800000065
:1058B00010001FF810040004000410041FF810006A
:1058C00010001E0011E0001C007013801C0010006E
:1058D0001FC0103C00E01F0000E0103C1FC0000093
:1058E0001004180C163401C001C01634180C100432
:1058F00010001C00130400FC13041C001000000026
:105900000804101C1064108413041C0410180000F8
:105910000000000000007FFE400240024002000044
:10592000000030000C0003800060001C0003000039
:1059300000004002400240027FFE00000000000024
:105940000000000020004000400040002000000057
:10595000000100010001000100010001000100013F
:105960000000400040002000000000000000000097
:1059700000000098012401440144014400FC00049B
:1059800010001FFC00880104010400880070000062
:105990000000007000880104010401040088000078
:1059A0000000007000880104010411081FFC0004BD
:1059B000000000F8014401440144014400C8000013
:1059C0000000010401040FFC11041104110018006F
:1059D000000000D601290129012901C901060000A2
:1059E00010041FFC008401000100010400FC0004FD
:1059F00000000104190419FC000400040000000068
:105A00000000000300010101190119FE000000005F
:105A100010041FFC0024004001B4010C010400002C
:105A20000000100410041FFC00040004000000002B
:105A3000010401FC0104010001FC0104010000FC5F
:105A4000010401FC008401000100010400FC0004C9
:105A5000000000F8010401040104010400F8000042
:105A6000010101FF008501040104008800700000AD
:105A700000000070008801040104010501FF00011D
:105A80000104010401FC0084010401000180000004
:105A9000000000CC0124012401240124019800000D
:105AA00000000100010007F80104010400000000EB
:105AB000010001F8000400040004010801FC0004D6
:105AC000010001800170000C0010016001800100E4
:105AD00001F0010C003001C00030010C01F00100A8
